{
  "_format": "hh-sol-artifact-1",
  "contractName": "MerkleVerifier",
  "sourceName": "contracts/MerkleVerifier.sol",
  "abi": [
    {
      "inputs": [
        {
          "internalType": "bytes32",
          "name": "merkleRoot_",
          "type": "bytes32"
        }
      ],
      "stateMutability": "nonpayable",
      "type": "constructor"
    },
    {
      "anonymous": false,
      "inputs": [
        {
          "indexed": false,
          "internalType": "uint256",
          "name": "index",
          "type": "uint256"
        },
        {
          "indexed": false,
          "internalType": "uint8",
          "name": "capacity",
          "type": "uint8"
        },
        {
          "indexed": false,
          "internalType": "uint32",
          "name": "quality",
          "type": "uint32"
        },
        {
          "indexed": false,
          "internalType": "uint32",
          "name": "style",
          "type": "uint32"
        }
      ],
      "name": "Claimed",
      "type": "event"
    },
    {
      "inputs": [
        {
          "internalType": "uint256",
          "name": "index",
          "type": "uint256"
        },
        {
          "internalType": "uint8",
          "name": "capacity",
          "type": "uint8"
        },
        {
          "internalType": "uint32",
          "name": "quality",
          "type": "uint32"
        },
        {
          "internalType": "uint32",
          "name": "style",
          "type": "uint32"
        },
        {
          "internalType": "bytes32[]",
          "name": "merkleProof",
          "type": "bytes32[]"
        }
      ],
      "name": "claim",
      "outputs": [],
      "stateMutability": "nonpayable",
      "type": "function"
    },
    {
      "inputs": [
        {
          "internalType": "uint256",
          "name": "index",
          "type": "uint256"
        }
      ],
      "name": "isClaimed",
      "outputs": [
        {
          "internalType": "bool",
          "name": "",
          "type": "bool"
        }
      ],
      "stateMutability": "view",
      "type": "function"
    },
    {
      "inputs": [],
      "name": "merkleRoot",
      "outputs": [
        {
          "internalType": "bytes32",
          "name": "",
          "type": "bytes32"
        }
      ],
      "stateMutability": "view",
      "type": "function"
    }
  ],
  "bytecode": "0x60a060405234801561001057600080fd5b506040516105ac3803806105ac8339818101604052602081101561003357600080fd5b810190808051906020019092919050505080608081815250505060805161054061006c60003980610259528061034552506105406000f3fe608060405234801561001057600080fd5b50600436106100415760003560e01c806329c1a19a146100465780632eb4a7ab146100f65780639e34070f14610114575b600080fd5b6100f4600480360360a081101561005c57600080fd5b8101908080359060200190929190803560ff169060200190929190803563ffffffff169060200190929190803563ffffffff169060200190929190803590602001906401000000008111156100b057600080fd5b8201836020820111156100c257600080fd5b803590602001918460208302840111640100000000831117156100e457600080fd5b9091929391929390505050610158565b005b6100fe610343565b6040518082815260200191505060405180910390f35b6101406004803603602081101561012a57600080fd5b8101908080359060200190929190505050610367565b60405180821515815260200191505060405180910390f35b61016186610367565b156101b7576040517f08c379a00000000000000000000000000000000000000000000000000000000081526004018080602001828103825260288152602001806104c26028913960400191505060405180910390fd5b600086868686604051602001808581526020018460ff1660f81b81526001018363ffffffff1660e01b81526004018263ffffffff1660e01b815260040194505050505060405160208183030381529060405280519060200120905061027e838380806020026020016040519081016040528093929190818152602001838360200280828437600081840152601f19601f820116905080830192505050505050507f0000000000000000000000000000000000000000000000000000000000000000836103b8565b6102d3576040517f08c379a00000000000000000000000000000000000000000000000000000000081526004018080602001828103825260218152602001806104ea6021913960400191505060405180910390fd5b6102dc8761046d565b7f7b7d388ff0f6353df7fb667d8e897652b2f183ae84d26c7f035cd5b0a196700387878787604051808581526020018460ff1681526020018363ffffffff1681526020018263ffffffff16815260200194505050505060405180910390a150505050505050565b7f000000000000000000000000000000000000000000000000000000000000000081565b600080610100838161037557fe5b0490506000610100848161038557fe5b06905060008060008481526020019081526020016000205490506000826001901b90508081831614945050505050919050565b60008082905060005b855181101561045f5760008682815181106103d857fe5b6020026020010151905080831161041f5782816040516020018083815260200182815260200192505050604051602081830303815290604052805190602001209250610451565b808360405160200180838152602001828152602001925050506040516020818303038152906040528051906020012092505b5080806001019150506103c1565b508381149150509392505050565b6000610100828161047a57fe5b0490506000610100838161048a57fe5b069050806001901b60008084815260200190815260200160002054176000808481526020019081526020016000208190555050505056fe4d65726b6c654469737472696275746f723a2044726f7020616c726561647920636c61696d65642e4d65726b6c654469737472696275746f723a20496e76616c69642070726f6f662ea264697066735822122071675139aca7383c5c4c1b74494829fb65e77da36e85be73de03b7e5fa9c813264736f6c63430007030033",
  "linkReferences": {},
  "deployedLinkReferences": {}
}