{
  "_format": "hh-sol-artifact-1",
  "contractName": "MerkleDistributor",
  "sourceName": "contracts/MerkleDistributor.sol",
  "abi": [
    {
      "inputs": [
        {
          "internalType": "bytes32",
          "name": "merkleRoot_",
          "type": "bytes32"
        }
      ],
      "stateMutability": "nonpayable",
      "type": "constructor"
    },
    {
      "anonymous": false,
      "inputs": [
        {
          "indexed": false,
          "internalType": "uint256",
          "name": "index",
          "type": "uint256"
        },
        {
          "indexed": false,
          "internalType": "address",
          "name": "account",
          "type": "address"
        },
        {
          "indexed": false,
          "internalType": "uint256",
          "name": "amount",
          "type": "uint256"
        }
      ],
      "name": "Claimed",
      "type": "event"
    },
    {
      "inputs": [
        {
          "internalType": "uint256",
          "name": "index",
          "type": "uint256"
        },
        {
          "internalType": "address",
          "name": "account",
          "type": "address"
        },
        {
          "internalType": "uint256",
          "name": "amount",
          "type": "uint256"
        },
        {
          "internalType": "bytes32[]",
          "name": "merkleProof",
          "type": "bytes32[]"
        }
      ],
      "name": "claim",
      "outputs": [],
      "stateMutability": "nonpayable",
      "type": "function"
    },
    {
      "inputs": [
        {
          "internalType": "uint256",
          "name": "index",
          "type": "uint256"
        }
      ],
      "name": "isClaimed",
      "outputs": [
        {
          "internalType": "bool",
          "name": "",
          "type": "bool"
        }
      ],
      "stateMutability": "view",
      "type": "function"
    },
    {
      "inputs": [],
      "name": "merkleRoot",
      "outputs": [
        {
          "internalType": "bytes32",
          "name": "",
          "type": "bytes32"
        }
      ],
      "stateMutability": "view",
      "type": "function"
    }
  ],
  "bytecode": "0x60a060405234801561001057600080fd5b506040516105a03803806105a08339818101604052602081101561003357600080fd5b810190808051906020019092919050505080608081815250505060805161053461006c6000398061024f528061033952506105346000f3fe608060405234801561001057600080fd5b50600436106100415760003560e01c80632e7ba6ef146100465780632eb4a7ab146100f35780639e34070f14610111575b600080fd5b6100f16004803603608081101561005c57600080fd5b8101908080359060200190929190803573ffffffffffffffffffffffffffffffffffffffff16906020019092919080359060200190929190803590602001906401000000008111156100ad57600080fd5b8201836020820111156100bf57600080fd5b803590602001918460208302840111640100000000831117156100e157600080fd5b9091929391929390505050610155565b005b6100fb610337565b6040518082815260200191505060405180910390f35b61013d6004803603602081101561012757600080fd5b810190808035906020019092919050505061035b565b60405180821515815260200191505060405180910390f35b61015e8561035b565b156101b4576040517f08c379a00000000000000000000000000000000000000000000000000000000081526004018080602001828103825260288152602001806104b66028913960400191505060405180910390fd5b6000858585604051602001808481526020018373ffffffffffffffffffffffffffffffffffffffff1660601b81526014018281526020019350505050604051602081830303815290604052805190602001209050610274838380806020026020016040519081016040528093929190818152602001838360200280828437600081840152601f19601f820116905080830192505050505050507f0000000000000000000000000000000000000000000000000000000000000000836103ac565b6102c9576040517f08c379a00000000000000000000000000000000000000000000000000000000081526004018080602001828103825260218152602001806104de6021913960400191505060405180910390fd5b6102d286610461565b7f4ec90e965519d92681267467f775ada5bd214aa92c0dc93d90a5e880ce9ed026868686604051808481526020018373ffffffffffffffffffffffffffffffffffffffff168152602001828152602001935050505060405180910390a1505050505050565b7f000000000000000000000000000000000000000000000000000000000000000081565b600080610100838161036957fe5b0490506000610100848161037957fe5b06905060008060008481526020019081526020016000205490506000826001901b90508081831614945050505050919050565b60008082905060005b85518110156104535760008682815181106103cc57fe5b602002602001015190508083116104135782816040516020018083815260200182815260200192505050604051602081830303815290604052805190602001209250610445565b808360405160200180838152602001828152602001925050506040516020818303038152906040528051906020012092505b5080806001019150506103b5565b508381149150509392505050565b6000610100828161046e57fe5b0490506000610100838161047e57fe5b069050806001901b60008084815260200190815260200160002054176000808481526020019081526020016000208190555050505056fe4d65726b6c654469737472696275746f723a2044726f7020616c726561647920636c61696d65642e4d65726b6c654469737472696275746f723a20496e76616c69642070726f6f662ea264697066735822122091249c3ea04d3dc8520f2017ed66f0074e87f46c4c39f79db67c5958e5f3121864736f6c63430007030033",
  "linkReferences": {},
  "deployedLinkReferences": {}
}