{
  "_format": "hh-sol-artifact-1",
  "contractName": "MerkleDistributor",
  "sourceName": "contracts/MerkleDistributor.sol",
  "abi": [
    {
      "inputs": [
        {
          "internalType": "bytes32",
          "name": "_merkleRoot",
          "type": "bytes32"
        }
      ],
      "stateMutability": "nonpayable",
      "type": "constructor"
    },
    {
      "anonymous": false,
      "inputs": [
        {
          "indexed": false,
          "internalType": "uint256",
          "name": "index",
          "type": "uint256"
        },
        {
          "indexed": false,
          "internalType": "address",
          "name": "account",
          "type": "address"
        },
        {
          "indexed": false,
          "internalType": "bytes32",
          "name": "amount",
          "type": "bytes32"
        }
      ],
      "name": "Claimed",
      "type": "event"
    },
    {
      "inputs": [
        {
          "internalType": "uint256",
          "name": "index",
          "type": "uint256"
        },
        {
          "internalType": "address",
          "name": "account",
          "type": "address"
        },
        {
          "internalType": "bytes32",
          "name": "amount",
          "type": "bytes32"
        },
        {
          "internalType": "bytes32[]",
          "name": "merkleProof",
          "type": "bytes32[]"
        }
      ],
      "name": "claim",
      "outputs": [],
      "stateMutability": "nonpayable",
      "type": "function"
    },
    {
      "inputs": [
        {
          "internalType": "uint256",
          "name": "index",
          "type": "uint256"
        }
      ],
      "name": "isClaimed",
      "outputs": [
        {
          "internalType": "bool",
          "name": "",
          "type": "bool"
        }
      ],
      "stateMutability": "view",
      "type": "function"
    },
    {
      "inputs": [],
      "name": "merkleRoot",
      "outputs": [
        {
          "internalType": "bytes32",
          "name": "",
          "type": "bytes32"
        }
      ],
      "stateMutability": "view",
      "type": "function"
    }
  ],
  "bytecode": "0x60a060405234801561001057600080fd5b506040516106163803806106168339818101604052602081101561003357600080fd5b81019080805190602001909291905050508060808181525050506080516105aa61006c60003980610157528061022852506105aa6000f3fe608060405234801561001057600080fd5b50600436106100415760003560e01c80632eb4a7ab146100465780634462aebc146100645780639e34070f14610111575b600080fd5b61004e610155565b6040518082815260200191505060405180910390f35b61010f6004803603608081101561007a57600080fd5b8101908080359060200190929190803573ffffffffffffffffffffffffffffffffffffffff16906020019092919080359060200190929190803590602001906401000000008111156100cb57600080fd5b8201836020820111156100dd57600080fd5b803590602001918460208302840111640100000000831117156100ff57600080fd5b9091929391929390505050610179565b005b61013d6004803603602081101561012757600080fd5b810190808035906020019092919050505061030f565b60405180821515815260200191505060405180910390f35b7f000000000000000000000000000000000000000000000000000000000000000081565b6101828561030f565b156101d8576040517f08c379a000000000000000000000000000000000000000000000000000000000815260040180806020018281038252602881526020018061052c6028913960400191505060405180910390fd5b6101e183610360565b61024d828280806020026020016040519081016040528093929190818152602001838360200280828437600081840152601f19601f820116905080830192505050505050507f0000000000000000000000000000000000000000000000000000000000000000856103f9565b6102a2576040517f08c379a00000000000000000000000000000000000000000000000000000000081526004018080602001828103825260218152602001806105546021913960400191505060405180910390fd5b6102ab856104ae565b7fbcb8b73e5a89971ee294cc3d2f51a084375b679f88047211b28c5344acb53df5858585604051808481526020018373ffffffffffffffffffffffffffffffffffffffff168152602001828152602001935050505060405180910390a15050505050565b600080610100838161031d57fe5b0490506000610100848161032d57fe5b06905060008060008481526020019081526020016000205490506000826001901b90508081831614945050505050919050565b6103f681604051602401808281526020019150506040516020818303038152906040527f27b7cf85000000000000000000000000000000000000000000000000000000007bffffffffffffffffffffffffffffffffffffffffffffffffffffffff19166020820180517bffffffffffffffffffffffffffffffffffffffffffffffffffffffff8381831617835250505050610502565b50565b60008082905060005b85518110156104a057600086828151811061041957fe5b602002602001015190508083116104605782816040516020018083815260200182815260200192505050604051602081830303815290604052805190602001209250610492565b808360405160200180838152602001828152602001925050506040516020818303038152906040528051906020012092505b508080600101915050610402565b508381149150509392505050565b600061010082816104bb57fe5b049050600061010083816104cb57fe5b069050806001901b600080848152602001908152602001600020541760008084815260200190815260200160002081905550505050565b60008151905060006a636f6e736f6c652e6c6f679050602083016000808483855afa505050505056fe4d65726b6c654469737472696275746f723a2044726f7020616c726561647920636c61696d65642e4d65726b6c654469737472696275746f723a20496e76616c69642070726f6f662ea2646970667358221220be210053103a137bcce8927147e9177db5b3187676d532a5e4aa12902126e17d64736f6c63430007030033",
  "linkReferences": {},
  "deployedLinkReferences": {}
}